:020000040000FA
:0400000018EF00F005
:1000080056829EA002D082929E90A1A20BD082829C
:10001800D80EB36EF00EB26E5550CF6E54C0CEFFF0
:100028009E90A192569211003BEF06F0000E166EBC
:1000380060AE85D062A61ED014C0D9FF15C0DAFF05
:10004800020EDF6E64CF01F061CF02F062CF03F0E1
:10005800635028EC02F020EE01F01450D926155018
:10006800DA2201C0DEFF02C0DEFF03C0DEFF04C0EB
:10007800DEFF19D014C0D9FF15C0DAFF010EDF6EFC
:1000880062CF01F06150B0EC05F020EE01F01450A1
:10009800D9261550DA2201C0DEFF02C0DEFF03C0F8
:1000A800DEFF04C0DEFF20EE05F01450D9261550FF
:1000B800DA2265CFDFFF20EE06F01450D92615505E
:1000C800DA2266CFDFFF20EE07F01450D92615504C
:1000D800DA2267CFDFFF20EE08F01450D92615503A
:1000E800DA2268CFDFFF20EE09F01450D926155028
:1000F800DA2269CFDFFF20EE0AF01450D926155016
:10010800DA226ACFDFFF20EE0BF01450D926155003
:10011800DA226BCFDFFF20EE0CF01450D9261550F1
:10012800DA226CCFDFFF20EE0DF01450D9261550DF
:10013800DA226DCFDFFF609E010E166E87D00F01A9
:1001480030AF84D032A71ED014C0D9FF15C0DAFF53
:10015800020EDF6E34CF01F031CF02F032CF03F060
:10016800335128EC02F020EE01F01450D926155036
:10017800DA2201C0DEFF02C0DEFF03C0DEFF04C0DA
:10018800DEFF19D014C0D9FF15C0DAFF010EDF6EEB
:1001980032CF01F03151B0EC05F020EE01F01450EF
:1001A800D9261550DA2201C0DEFF02C0DEFF03C0E7
:1001B800DEFF04C0DEFF20EE05F01450D9261550EE
:1001C800DA2235CFDFFF20EE06F01450D92615507D
:1001D800DA2236CFDFFF20EE07F01450D92615506B
:1001E800DA2237CFDFFF20EE08F01450D926155059
:1001F800DA2238CFDFFF20EE09F01450D926155047
:10020800DA2239CFDFFF20EE0AF01450D926155034
:10021800DA223ACFDFFF20EE0BF01450D926155022
:10022800DA223BCFDFFF20EE0CF01450D926155010
:10023800DA223CCFDFFF20EE0DF01450D9261550FE
:10024800DA223DCFDFFF0F01309F76D7165012001C
:10025800000E216E000E206E8190000EB8EC06F0A4
:100268008180204A212A21BEF7D7215004E1040EBB
:10027800205CD8A0F1D78190C00EB8EC06F0818040
:100288008A0E026E000E036E000E046E000E056EDE
:10029800000E076E020E066E050EF3EC03F08A0ED2
:1002A800026E000E036E000E046E000E056E000E48
:1002B800076E020E066E060EF3EC03F0200E026EB9
:1002C800000E036E000E046E000E056E000E076E23
:1002D800020E066E070EF3EC03F0010E026E000E1E
:1002E800036E000E046E000E056E000E076E020E01
:1002F800066E080EF3EC03F0FF0E026E000E036E9E
:10030800000E046E000E056E000E076E010E066EDE
:10031800090EF3EC03F0F00E026E000E036E000EF1
:10032800046E000E056E000E076E010E066E0A0EB4
:10033800F3EC03F0F00E026E000E036E000E046E76
:10034800000E056E000E076E010E066E0B0EF3EC26
:1003580003F0F00E026E000E036E000E046E000E27
:10036800056E000E076E010E066E0C0EF3EC03F020
:100378000F0E026E000E036E000E046E000E056E68
:10038800000E076E010E066E130EF3EC03F07F0EDF
:10039800026E000E036E000E046E000E056E000E57
:1003A800076E010E066E140EF3EC03F0070E1B6EBB
:1003B800F80E1B16000E346E000E336E33B002D0EA
:1003C8001B9E01D01B8E1B501C6E1D6A1E6A1F6A65
:1003D8001CC002F01DC003F01EC004F01FC005F0D1
:1003E800000E076E010E066E160EF3EC03F02F0ECC
:1003F8001A6E880E196EF80E19161996198819C0F2
:100408001CF01AC01DF01E6A1F6A1CC002F01DC035
:1004180003F01EC004F01FC005F0000E076E020EA8
:10042800066E180EF3EC03F0000E036E020E026E59
:10043800190E94EC03F002C015F003C016F004C0C6
:1004480017F005C018F01200096E000E106E000EAD
:10045800116E000E126E000E136E0350030B0E6E1B
:100468000338E842070B0F6E0250056E066AD890F3
:1004780005360636D89005360636D890053606363F
:1004880005C010F006C011F0000E11BEFF0E126E6E
:10049800136E0F501024106E000E1120116E000EF6
:1004A8001220126E000E1320136E10C005F011C03A
:1004B80006F012C007F013C008F0020ED8900536F7
:1004C800063607360836E82EF9D705C010F006C0FC
:1004D80011F007C012F008C013F00E501024106E6F
:1004E800000E1120116E000E1220126E000E132045
:1004F800136E10C006F011C007F012C008F0056AAC
:1005080005C010F006C011F007C012F008C013F0C3
:1005180009501024106E000E1120116E000E1220CA
:10052800126E000E1320136E10C006F011C007F0F3
:1005380012C008F0056A05C010F006C011F007C027
:1005480012F008C013F001501024106E000E112094
:10055800116E000E1220126E000E1320136E10C0C2
:100568000AF011C00BF012C00CF013C00DF00AC055
:1005780001F00BC002F00CC003F00DC004F0120033
:10058800720ED36EF19E020E0F015B6F000E5D6F4F
:10059800000E5C6FC00E926E0A0E936E110E946E72
:1005A800000E806E010E816E000E826E300ECD6ED2
:1005B800300EB16E9E909D80A192A082F28CF28E38
:1005C80050C01BF051C01CF0EAEC04F0CD80B180A3
:1005D8004DEC04F0010E016E000E036E000E026E6B
:1005E800030E16EC06F02CEC01F0010E026E2C0E38
:1005F800016EA3EC06F08284000E026E640E016E9A
:10060800A3EC06F0829482A002D0829407D0828460
:1006180052C01BF053C01CF0EAEC04F0360E146E06
:10062800000E156E1AEC00F00009D8B4ECD720EED5
:1006380036F000EE21F00D0EDBCFEBFFE806FCE212
:10064800A2EC04F08284000E026E320E016EA3EC5E
:1006580006F0D9D7000E166E14AE0AD0141E131E5B
:10066800121E116C000E122213221422010E166E95
:1006780010AE0AD0101E0F1E0E1E0D6C000E0E229C
:100688000F221022010E161A000E176E000E186E99
:10069800000E196E000E1A6E11501210131014105D
:1006A800D8B42AD0010E156E06D0D890113612365D
:1006B80013361436152A14AEF8D7D89017361836CC
:1006C80019361A3611500D5C12500E5813500F5827
:1006D80014501058D8A009D011500D5E12500E5A5F
:1006E80013500F5A1450105A1780D89014321332DE
:1006F80012321132152EE1D71650D8B408D01A1E6E
:10070800191E181E176C000E182219221A2217C05B
:100718000DF018C00EF019C00FF01AC010F012003A
:10072800106E8190190E1018D8A404D0D00EB8EC11
:1007380006F004D010502009B8EC06F08180000EB5
:100748000A6E000E0B6E000E0C6E000E0D6E0AC0C7
:1007580011F00BC012F00CC013F00DC014F0000E15
:100768000F6E000E0E6E28D011C007F012C008F0F0
:1007780013C009F0066A06C011F007C012F008C0DD
:1007880013F009C014F08190000EB8EC06F0066E64
:1007980006500A6E0B6A0C6A0D6A81800A501110A5
:1007A800116E0B501210126E0C501310136E0D5068
:1007B8001410146E0E4A0F2A02500E5C0F50800A55
:1007C800066E0350800A0658D8A0CED711C002F092
:1007D80012C003F013C004F014C005F01200106E2C
:1007E800000E126E000E116E21D00C0E1124D96E5F
:1007F800000E1220DA6E02C0DFFF02C008F003C04C
:1008080009F004C00AF005C00BF009C008F00AC0DE
:1008180009F00BC00AF00B6A08C002F009C003F027
:100828000AC004F00BC005F0114A122A0650115CE8
:100838001250800A086E0750800A0858D8A0D5D7E9
:1008480081901050B8EC06F0818010D081900E5045
:10085800B8EC06F0818081900D50B8EC06F08180EC
:1008680081900C50B8EC06F08180120006C008F0A8
:1008780007C009F00950000AD8A412000850010A5C
:10088800D8B4EED7030AD8B4E6D7010AD8A4120020
:10089800DDD7800E6F6E6E50E00B800AD8A4FBD7B0
:1008A800000E726E200E706E0E01FA69FB69F8690F
:1008B800E30EF96FFE69FF69FC69E30EFD6F000E38
:1008C800E26F000EE36F240EE06F600EE16F000E22
:1008D800E66F000EE76F000EE46F000EE56F000E86
:1008E800EA6F000EEB6F000EE86F000EE96F000E66
:1008F800EE6F000EEF6F000EEC6F000EED6F000E46
:10090800F26F000EF36F000EF06F000EF16F000E25
:10091800F66F000EF76F000EF46F000EF56F010E04
:10092800436F980E446F010E456F000E6F6E6ECFC9
:1009380001F0E00E0116D8B41200F9D72104D8A4AA
:10094800120029D027C044F028C045F029C046F03D
:100958002AC047F02BC048F02CC049F02DC04AF0FF
:100968002EC04BF009D045C01BF01C6AEAEC04F01D
:1009780012002FEC05F0120044502F6E306A3050F0
:10098800000AD8A412002F50010AD8B4ECD7110AD3
:10099800D8A41200EED722C02FF023C030F024C014
:1009A80031F025C032F03250000AD8A4120009D024
:1009B8003050010AD8A412002F50230AD8A41200DC
:1009C800C1D73150000AD8A41200F2D79E90A19244
:1009D8001BC001F01CC002F0000E02BEFF0E036E29
:1009E800046EE80E056E030E066E000E076E000E0E
:1009F800086EEBEC05F001C00DF002C00EF003C06C
:100A08000FF004C010F0B40E116E000E126E000E3E
:100A1800136E000E146E2EEC03F0FA0E0D241D6EEC
:100A2800000E0E201E6E000E0F201F6E000E1020EE
:100A3800206E1D500008546E1E50D8A0E82A0008E9
:100A4800556E5550CF6E54C0CEFFD80EB36EF00E13
:100A5800B26E8282120031D046C002F0036A58ECAE
:100A680006F0470E016E000E026E000E046E030EB5
:100A7800036E73EC05F001C013F002C014F003C05C
:100A880015F004C016F046508BEC06F01200470E25
:100A9800016E000E026E000E046E030E036E73EC00
:100AA80005F001C013F002C014F003C015F004C033
:100AB80016F0465072EC06F012004550186E196A8E
:100AC8001950000AD8A412001850000AD8B4C4D784
:100AD800400AD8B4DCD7100AD8A41200C2D7000E36
:100AE8000C6E000E0D6E000E0E6E000E0F6E000ED8
:100AF8000B6E000E0A6E1DD001C0D9FF02C0DAFFCE
:100B0800DF50056E05500CC007F00DC008F00EC090
:100B180009F0066A06240C6E000E07200D6E000E02
:100B280008200E6E000E09200F6E014A022A0A4A9A
:100B38000B2A03500A5C0B50800A056E0450800A89
:100B48000558D8A0D9D70CC001F00DC002F00EC0CE
:100B580003F00FC004F01200076E0750056E066A16
:100B6800D89005360636D89005360636D89005361C
:100B7800063605C00CF006C00DF0000E0DBEFF0EC7
:100B88000E6E0F6E01C005F0050E066ED890053288
:100B9800062EFCD705500C240C6E000E0D200D6E91
:100BA800000E0E200E6E000E0F200F6E0CC008F007
:100BB8000DC009F00EC00AF00FC00BF008C001F01C
:100BC80009C002F00AC003F00BC004F01200000EC6
:100BD800096E000E0A6E000E0B6E000E0C6E01A060
:100BE80008D00550092606500A2207500B22085043
:100BF8000C22D8900536063607360836D8900432C7
:100C08000332023201320150021003100410D8A43A
:100C1800E6D709C001F00AC002F00BC003F00CC00F
:100C280004F01200066E200E056E000E046E0550CC
:100C38000110056E0650D8B404D0020E0618D8A4C8
:100C480003D004504009046E020E0618D8B404D02C
:100C5800030E0618D8A403D005501009056E05C068
:100C6800C6FF04C0C7FF9E96F28CF28E1200800E5B
:100C7800F66E0D0EF76E000EF86E00EE4CF010EEEC
:100C880008F00900F5CFEEFFE550E150FAE100EE7B
:100C980033F0190EEE6AE806FDE156905692000E02
:100CA800F86E0001C4EF02F04CC004F04DC005F02E
:100CB8004EC006F04FC007F033503410D8A402D00D
:100CC80081A2FAD78190040E0224D96E000E032067
:100CD800DA6EDF50B8EC06F081801200176E82845D
:100CE80033503410D8A402D081A2FAD713C002F02E
:100CF80014C003F015C004F016C005F0000E076E0E
:100D0800030E066E17504009F3EC03F01200176E3D
:100D180033503410D8A402D081A2FAD713C002F0FD
:100D280014C003F015C004F016C005F0000E076EDD
:100D3800030E066E17505009F3EC03F01200000E74
:100D4800056E000E046E09D0340E036EF20EE82E06
:100D5800FED7032EFCD7044A052A0150045C025032
:100D68000558D8B01200F0D7016E01C0C9FF9EA681
:100D7800FED79E96C9501200B0B8A0A83C007800D3
:020000040020DA
:08000000FFFFFFFFFFFFFFFF00
:020000040030CA
:0E00000015087F7FFF8991FF0FC00FE00F40B2
:00000001FF
