:020000040000FA
:0400000018EF00F005
:100008005A829EA002D082929E90A1A20BD0828298
:10001800D80EB36EF00EB26E5950CF6E58C0CEFFE8
:100028009E90A1925A92110014EF07F0720ED36EAF
:10003800F19E220E0F015B6F000E5D6F000E5C6F6C
:10004800C00E926E2A0E936E110E946E000E806E84
:10005800010E816E000E826E300ECD6E300EB16EC6
:100068009E909D80A192A082F28CF28E4750020D44
:10007800540EF324D96E000EF420DA6EDECF1BF096
:10008800DDCF1CF0E3EC05F0CD80B1808CEC05F001
:10009800010E016E000E036E000E026E030ECBEC15
:1000A80006F04CEC02F0010E026E2C0E016E82EC92
:1000B80007F00BD0300E136E750E146E000E156E11
:1000C800000E166E000E6AEC07F081BAF3D7000E28
:1000D800036E010E026E37EC07F0000E036ED80EA9
:1000E800026E97EC07F08284000E026E640E016EB9
:1000F80082EC07F0829480BC25D045044610D8A431
:100108001AD082844704D8A402D0000E01D0010E70
:10011800476E4750020D540EF324D96E000EF4209A
:10012800DA6EDECF1BF0DDCF1CF0E3EC05F0000E3D
:10013800466E000E456E000E026E010E016E82ECD8
:1001480007F005D08294000E466E010EF3D780BEEC
:100158000CD0300E136E750E146E000E156E000E58
:10016800166E010E6AEC07F015D082A081AA0CD099
:10017800300E136E750E146E000E156E000E166E90
:10018800000E6AEC07F006D0000E036E010E026E38
:1001980037EC07F0600E146E000E156E3AEC01F0A5
:1001A8000009D8B4A8D7828420EE60F000EE21F0D0
:1001B8000D0EDBCFEBFFE806FCE2F0EC06F02F6E4D
:1001C800306A2FC048F030C049F0010E316E010E80
:1001D800326E000E336E000E346E000E356E080E51
:1001E800366E48C0D9FF49C0DAFFDF50376E20EEBF
:1001F80002F04850D9264950DA22DF50386E20EEF6
:1002080004F04850D9264950DA22DF50396E20EEE2
:1002180006F04850D9264950DA22DF503A6E20EECF
:1002280008F04850D9264950DA22DF503B6E20EEBC
:100238000AF04850D9264950DA22DF503C6E20EEA9
:100248000CF04850D9264950DA22DF503D6E20EE96
:100258000EF04850D9264950DA22DF503E6E000E83
:10026800026E320E016E82EC07F045D7000E166E54
:1002780060AE85D062A61ED014C0D9FF15C0DAFFC3
:10028800020EDF6E64CF01F061CF02F062CF03F09F
:10029800635048EC03F020EE01F01450D9261550B5
:1002A800DA2201C0DEFF02C0DEFF03C0DEFF04C0A9
:1002B800DEFF19D014C0D9FF15C0DAFF010EDF6EBA
:1002C80062CF01F0615065EC06F020EE01F01450A9
:1002D800D9261550DA2201C0DEFF02C0DEFF03C0B6
:1002E800DEFF04C0DEFF20EE05F01450D9261550BD
:1002F800DA2265CFDFFF20EE06F01450D92615501C
:10030800DA2266CFDFFF20EE07F01450D926155009
:10031800DA2267CFDFFF20EE08F01450D9261550F7
:10032800DA2268CFDFFF20EE09F01450D9261550E5
:10033800DA2269CFDFFF20EE0AF01450D9261550D3
:10034800DA226ACFDFFF20EE0BF01450D9261550C1
:10035800DA226BCFDFFF20EE0CF01450D9261550AF
:10036800DA226CCFDFFF20EE0DF01450D92615509D
:10037800DA226DCFDFFF609E010E166E87D00F0167
:1003880030AF84D032A71ED014C0D9FF15C0DAFF11
:10039800020EDF6E34CF01F031CF02F032CF03F01E
:1003A800335148EC03F020EE01F01450D9261550D3
:1003B800DA2201C0DEFF02C0DEFF03C0DEFF04C098
:1003C800DEFF19D014C0D9FF15C0DAFF010EDF6EA9
:1003D80032CF01F0315165EC06F020EE01F01450F7
:1003E800D9261550DA2201C0DEFF02C0DEFF03C0A5
:1003F800DEFF04C0DEFF20EE05F01450D9261550AC
:10040800DA2235CFDFFF20EE06F01450D92615503A
:10041800DA2236CFDFFF20EE07F01450D926155028
:10042800DA2237CFDFFF20EE08F01450D926155016
:10043800DA2238CFDFFF20EE09F01450D926155004
:10044800DA2239CFDFFF20EE0AF01450D9261550F2
:10045800DA223ACFDFFF20EE0BF01450D9261550E0
:10046800DA223BCFDFFF20EE0CF01450D9261550CE
:10047800DA223CCFDFFF20EE0DF01450D9261550BC
:10048800DA223DCFDFFF0F01309F76D716501200DA
:10049800000E216E000E206E8190000EA3EC07F076
:1004A8008180204A212A21BEF7D7215004E1040E79
:1004B800205CD8A0F1D78190C00EA3EC07F0818012
:1004C8008A0E026E000E036E000E046E000E056E9C
:1004D800000E076E020E066E050E32EC05F08A0E4F
:1004E800026E000E036E000E046E000E056E000E06
:1004F800076E020E066E060E32EC05F0200E026E36
:10050800000E036E000E046E000E056E000E076EE0
:10051800020E066E070E32EC05F0010E026E000E9A
:10052800036E000E046E000E056E000E076E020EBE
:10053800066E080E32EC05F0FF0E026E000E036E1A
:10054800000E046E000E056E000E076E010E066E9C
:10055800090E32EC05F0F00E026E000E036E000E6E
:10056800046E000E056E000E076E010E066E0A0E72
:1005780032EC05F0F00E026E000E036E000E046EF3
:10058800000E056E000E076E010E066E0B0E32ECA5
:1005980005F0F00E026E000E036E000E046E000EE3
:1005A800056E000E076E010E066E0C0E32EC05F09D
:1005B8000F0E026E000E036E000E046E000E056E26
:1005C800000E076E010E066E130E32EC05F07F0E5C
:1005D800026E000E036E000E046E000E056E000E15
:1005E800076E010E066E140E32EC05F0070E1B6E38
:1005F800F80E1B16000E446E000E436E43B002D078
:100608001B9E01D01B8E1B501C6E1D6A1E6A1F6A22
:100618001CC002F01DC003F01EC004F01FC005F08E
:10062800000E076E010E066E160E32EC05F02F0E48
:100638001A6E880E196EF80E19161996198819C0AF
:100648001CF01AC01DF01E6A1F6A1CC002F01DC0F3
:1006580003F01EC004F01FC005F0000E076E020E66
:10066800066E180E32EC05F0000E036E020E026ED6
:10067800190ED3EC04F002C015F003C016F004C044
:1006880017F005C018F01200096E000E106E000E6B
:10069800116E000E126E000E136E0350030B0E6ED9
:1006A8000338E842070B0F6E0250056E066AD890B1
:1006B80005360636D89005360636D89005360636FD
:1006C80005C010F006C011F0000E11BEFF0E126E2C
:1006D800136E0F501024106E000E1120116E000EB4
:1006E8001220126E000E1320136E10C005F011C0F8
:1006F80006F012C007F013C008F0020ED8900536B5
:10070800063607360836E82EF9D705C010F006C0B9
:1007180011F007C012F008C013F00E501024106E2C
:10072800000E1120116E000E1220126E000E132002
:10073800136E10C006F011C007F012C008F0056A69
:1007480005C010F006C011F007C012F008C013F081
:1007580009501024106E000E1120116E000E122088
:10076800126E000E1320136E10C006F011C007F0B1
:1007780012C008F0056A05C010F006C011F007C0E5
:1007880012F008C013F001501024106E000E112052
:10079800116E000E1220126E000E1320136E10C080
:1007A8000AF011C00BF012C00CF013C00DF00AC013
:1007B80001F00BC002F00CC003F00DC004F01200F1
:1007C8006AD04FC002F0036A37EC07F012004C0EF3
:1007D800016E000E026E000E046E030E036E28EC0E
:1007E80006F001C013F002C014F003C015F004C0F5
:1007F80016F04B506AEC07F012004C0E016E000E1A
:10080800026E000E046E030E036E28EC06F001C0A3
:1008180013F002C014F003C015F004C016F04B50DA
:1008280051EC07F01200000E036E700E026E97EC8A
:1008380007F01200000E036EC00E026E97EC07F070
:100848001200300E136E750E146E000E156E000E2B
:10085800166E000E6AEC07F081BAF3D7000E036E2D
:10086800010E026E37EC07F0000E036ED80E026E12
:1008780097EC07F01200000E036E030E026E010ED5
:10088800D3EC04F002C03FF003C040F004C041F0D4
:1008980005C042F012004A50186E196A1950000A31
:1008A800D8A412001850000AD8B48BD7010AD8B4BB
:1008B8008ED7030AD8B4A1D7010AD8B4B4D7070A87
:1008C800D8B4B8D7010AD8B4C7D7030AD8A4120035
:1008D800D2D7000E166E14AE0AD0141E131E121EA6
:1008E800116C000E122213221422010E166E10AE85
:1008F8000AD0101E0F1E0E1E0D6C000E0E220F22A7
:100908001022010E161A000E176E000E186E000E39
:10091800196E000E1A6E1150121013101410D8B45C
:100928002AD0010E156E06D0D8901136123613361D
:100938001436152A14AEF8D7D89017361836193643
:100948001A3611500D5C12500E5813500F5814508F
:100958001058D8A009D011500D5E12500E5A1350DD
:100968000F5A1450105A1780D8901432133212327A
:100978001132152EE1D71650D8B408D01A1E191EF8
:10098800181E176C000E182219221A2217C00DF013
:1009980018C00EF019C00FF01AC010F01200106E37
:1009A8008190190E1018D8A404D0D00EA3EC07F02B
:1009B80004D010502009A3EC07F08180000E0A6EC5
:1009C800000E0B6E000E0C6E000E0D6E0AC011F0BC
:1009D8000BC012F00CC013F00DC014F0000E0F6E17
:1009E800000E0E6E28D011C007F012C008F013C018
:1009F80009F0066A06C011F007C012F008C013F02B
:100A080009C014F08190000EA3EC07F0066E0650A2
:100A18000A6E0B6A0C6A0D6A81800A501110116EF9
:100A28000B501210126E0C501310136E0D50141040
:100A3800146E0E4A0F2A02500E5C0F50800A066E82
:100A48000350800A0658D8A0CED711C002F012C0B1
:100A580003F013C004F014C005F01200106E000E6D
:100A6800126E000E116E21D00C0E1124D96E000EDC
:100A78001220DA6E02C0DFFF02C008F003C009F0DE
:100A880004C00AF005C00BF009C008F00AC009F05C
:100A98000BC00AF00B6A08C002F009C003F00AC0D4
:100AA80004F00BC005F0114A122A0650115C1250CE
:100AB800800A086E0750800A0858D8A0D5D78190B8
:100AC8001050A3EC07F0818010D081900E50A3EC59
:100AD80007F0818081900D50A3EC07F08180819010
:100AE8000C50A3EC07F08180120006C008F007C084
:100AF80009F00950000AD8A412000850010AD8B415
:100B0800EED7030AD8B4E6D7010AD8A41200DDD775
:100B1800800E6F6E6E50E00B800AD8A4FBD7000ED3
:100B2800726E200E706E608A608C0E01FA69FB6925
:100B3800F869E30EF96FFE69FF69FC69E30EFD6F62
:100B4800000EE26F000EE36F240EE06F600EE16F9F
:100B5800000EE66F000EE76F000EE46F000EE56F03
:100B6800000EEA6F000EEB6F000EE86F000EE96FE3
:100B7800000EEE6F000EEF6F000EEC6F000EED6FC3
:100B8800000EF26F000EF36F000EF06F000EF16FA3
:100B9800000EF66F000EF76F000EF46F000EF56F83
:100BA800010E436F980E446F010E456F000E6F6E75
:100BB8006ECF01F0E00E0116D8B41200F9D79E905E
:100BC800A1921BC001F01CC002F0000E02BEFF0E75
:100BD800036E046EE80E056E030E066E000E076EB9
:100BE800000E086EA0EC06F001C00DF002C00EF079
:100BF80003C00FF004C010F0B40E116E000E126E98
:100C0800000E136E000E146E6DEC04F0FA0E0D2437
:100C18001D6E000E0E201E6E000E0F201F6E000EA1
:100C28001020206E1D500008586E1E50D8A0E82ACB
:100C38000008596E5950CF6E58C0CEFFD80EB36E0B
:100C4800F00EB26E82821200000E0C6E000E0D6E57
:100C5800000E0E6E000E0F6E000E0B6E000E0A6E6A
:100C68001DD001C0D9FF02C0DAFFDF50056E055064
:100C78000CC007F00DC008F00EC009F0066A062483
:100C88000C6E000E07200D6E000E08200E6E000E72
:100C980009200F6E014A022A0A4A0B2A03500A5CED
:100CA8000B50800A056E0450800A0558D8A0D9D781
:100CB8000CC001F00DC002F00EC003F00FC004F02C
:100CC8001200076E0750056E066AD890053606367C
:100CD800D89005360636D8900536063605C00CF08D
:100CE80006C00DF0000E0DBEFF0E0E6E0F6E01C099
:100CF80005F0050E066ED8900532062EFCD7055075
:100D08000C240C6E000E0D200D6E000E0E200E6EC3
:100D1800000E0F200F6E0CC008F00DC009F00EC0B9
:100D28000AF00FC00BF008C001F009C002F00AC0B9
:100D380003F00BC004F01200000E096E000E0A6EDC
:100D4800000E0B6E000E0C6E01A008D0055009268F
:100D580006500A2207500B2208500C22D89005365C
:100D6800063607360836D89004320332023201328A
:100D78000150021003100410D8A4E6D709C001F0EE
:100D88000AC002F00BC003F00CC004F01200066E9B
:100D9800200E056E000E046E05500110056E0650FB
:100DA800D8B404D0020E0618D8A403D004504009C1
:100DB800046E020E0618D8B404D0030E0618D8A480
:100DC80003D005501009056E05C0C6FF04C0C7FF53
:100DD8009E96F28CF28E12002104D8A41FD0020E27
:100DE80022181CE1230424102510D8A417D027C0EA
:100DF80048F028C049F029C04AF02AC04BF02BC05F
:100E08004CF02CC04DF02DC04EF02EC04FF049C014
:100E18001BF01C6AE3EC05F0E4EC03F0480E12004A
:100E2800560EF66E0F0EF76E000EF86E00EE50F0CE
:100E380010EE08F00900F5CFEEFFE550E150FAE1B9
:100E480000EE60F00E0EEE6AE806FDE100EE31F00D
:100E58001F0EEE6AE806FDE15A905A92000EF86EEF
:100E680000011AEF00F050C004F051C005F052C064
:100E780006F053C007F043504410D8A402D081A212
:100E8800FAD78190040E0224D96E000E0320DA6E80
:100E9800DF50A3EC07F081801200176E8284435064
:100EA8004410D8A402D081A2FAD713C002F014C00B
:100EB80003F015C004F016C005F0000E076E030E0F
:100EC800066E1750400932EC05F01200176E4350B9
:100ED8004410D8A402D081A2FAD713C002F014C0DB
:100EE80003F015C004F016C005F0000E076E030EDF
:100EF800066E1750500932EC05F01200000E056E10
:100F0800000E046E09D0340E036EF20EE82EFED7E2
:100F1800032EFCD7044A052A0150045C02500558E8
:100F2800D8B01200F0D743504410D8A402D081A200
:100F3800FAD781900250A3EC07F081801200016E6D
:100F480001C0C9FF9EA6FED79E96C9501200B0B830
:060F5800A0A83C00780097
:020000040020DA
:08000000FFFFFFFFFFFFFFFF00
:020000040030CA
:0E00000015087F7FFF8991FF0FC00FE00F40B2
:00000001FF
